:100000000C9435000C945D000C945D000C945D0024
:100010000C945D000C945D000C945D000C945D00EC
:100020000C945D000C945D000C9491040C945D00A4
:100030000C945D000C945D000C945D000C945D00CC
:100040000C94CE060C945D000C945D000C945D0045
:100050000C945D000C945D000C945D000C945D00AC
:100060000C94DE020C945D00D80111241FBECFEF6A
:10007000D4E0DEBFCDBF11E0A0E0B1E0EAE6FFE0F2
:1000800002C005900D92A630B107D9F711E0A6E0A5
:10009000B1E001C01D92A234B107E1F710E0CAE659
:1000A000D0E004C02297FE010E94AF07C836D107F6
:1000B000C9F70E94C7060C94B3070C9400000F9375
:1000C0001F93CF93DF93689F8001699F100D789FE6
:1000D000100D1124C8010E947B00EC01009729F04B
:1000E00060E070E0A8010E947D01CE01DF91CF9118
:1000F0001F910F910895CF93DF93BC01823091053A
:1001000010F462E070E0A0914001B0914101ED0176
:10011000E0E0F0E040E050E021C08881998186175E
:10012000970769F48A819B81309719F093838283C2
:1001300004C09093410180934001FE0134C06817D0
:10014000790738F44115510519F08417950708F41B
:10015000AC01FE018A819B819C01E9012097E9F6AF
:1001600041155105A9F1CA01861B970B049708F4A4
:10017000BA01E0E0F0E02AC08D919C9111978417BC
:100180009507F9F46417750781F412968D919C9187
:100190001397309719F09383828304C090934101A1
:1001A00080934001FD0132964CC0CA01861B970B1B
:1001B000FD01E80FF91F6193719302978D939C9352
:1001C00040C0FD01828193819C01D9011097A1F665
:1001D00080913E0190913F01892B41F48091020171
:1001E0009091030190933F0180933E01409104015F
:1001F000509105014115510541F44DB75EB780910D
:10020000000190910101481B590B20913E01309152
:100210003F01CA01821B930B8617970780F0AB0141
:100220004E5F5F4F8417950750F0420F531F509356
:100230003F0140933E01F9016193719302C0E0E0F8
:10024000F0E0CF01DF91CF910895CF93DF93009736
:1002500009F450C0EC0122971B821A82A091400140
:10026000B0914101109709F140E050E0AC17BD0793
:1002700008F1BB83AA83FE0121913191E20FF31FA4
:10028000AE17BF0779F48D919C911197280F391FF4
:100290002E5F3F4F3983288312968D919C9113973F
:1002A0009B838A834115510571F4D0934101C0931A
:1002B000400120C012968D919C911397AD0100973B
:1002C00011F0DC01D3CFFA01D383C28321913191A4
:1002D000E20FF31FCE17DF0769F488819981280F99
:1002E000391F2E5F3F4FFA01318320838A819B8122
:1002F00093838283DF91CF910895DC0101C06D93D8
:1003000041505040E0F70895FB019F01E8944230CE
:10031000C4F04532B4F44A3029F497FB1EF49095AA
:1003200081959F4F642F77270E949907805D8A33BC
:100330000CF0895D8193CB010097A1F716F45DE283
:1003400051931082C9010C94A501DC01FC01672FB7
:1003500071917723E1F7329704C07C916D9370839C
:100360006291AE17BF07C8F3089581E080930F0133
:1003700060930A0110920D0110920E010895809170
:10038000090190910801891B0895909108018091BD
:100390000901981710F080E00895E0910601F091AE
:1003A0000701E90FF11D80819F5F90930801089577
:1003B0000895DF93CF930F92CDB7DEB76983809115
:1003C0000F018823A9F080910E018032B0F4809152
:1003D0000D01E0910B01F0910C01E80FF11D60831C
:1003E00080910D018F5F80930D0180930E0105C0F8
:1003F000CE01019661E00E94C1020F90CF91DF9182
:10040000089560910B0170910C0180910A01409157
:100410000E0121E00E947C0210920D0110920E014B
:1004200010920F010895862F6091060170910701C7
:10043000413208F040E20E94440210920801809389
:10044000090108950E941302089580E290E061E09E
:1004500070E00E945F008093060190930701109264
:1004600008011092090180E290E061E070E00E94D2
:100470005F0080930B0190930C0110920D0110927C
:100480000E010E9460040895982F413210F040E060
:1004900031C0809111018823E1F781E0809311013F
:1004A0008FEF8093220110921901415040931A015D
:1004B0004F5F990F91609093120185EE8093BC007D
:1004C000809111018130E1F380911901841710F4BA
:1004D00040911901A0911701B091180120E030E07E
:1004E00007C0FB01E20FF31F8D9180832F5F3F4F09
:1004F0002417B8F3842F08951F93582F122F4132D9
:1005000010F081E03CC0809111018823E1F782E086
:10051000809311018FEF8093220110921901409373
:100520001A01A0911701B0911801FB0102C081913D
:100530008D938E2F861B8417D0F3852F90E0880F24
:10054000991F8093120185EE8093BC00112321F046
:10055000809111018230E1F3809122018F3F11F4EB
:1005600080E00DC080912201803211F482E007C04A
:1005700080912201803311F084E001C083E01F915B
:100580000895482F613210F081E0089580911101A3
:10059000843011F082E0089560931E01A0911B0148
:1005A000B0911C01842F9C01F90102C081918D93AF
:1005B0008E2F841B8617D0F380E008951F920F9230
:1005C0000FB60F9211242F933F934F935F936F9326
:1005D0007F938F939F93AF93BF93EF93FF938091FC
:1005E000B90090E0887F90708036910509F4E2C0F0
:1005F00081369105CCF58832910509F47BC08932AA
:100600009105B4F48031910509F46FC081319105F1
:100610003CF4009709F438C1089709F040C165C05F
:100620008831910509F466C0809709F038C17FC010
:100630008034910509F4A3C08134910544F48033DA
:10064000910509F47FC0C89709F029C186C080359B
:10065000910509F486C08835910509F495C0883460
:10066000910509F01CC19EC08839910509F404C1A7
:1006700089399105ECF48837910509F49BC08937D5
:1006800091054CF48836910509F494C080379105A2
:1006900009F005C18FC08838910509F4EDC0803993
:1006A000910509F48DC08038910509F0F8C088C023
:1006B000803B910509F4B2C0813B91054CF4803A2E
:1006C000910509F491C0883A910509F0E8C0A6C0E7
:1006D000803C910509F4D4C0883C910509F4D0C050
:1006E000883B910509F0DBC0B1C080911201809375
:1006F000BB00C0C09091190180911A01981778F43D
:1007000090911901E0911701F0911801E90FF11D85
:1007100080818093BB009F5F90931901ABC085EDF2
:100720008093BC008091BC0084FDFCCFB6C080E209
:100730008093220185ED8093BC008091BC0084FDF4
:10074000FCCFABC080E38093220185ED8093BC0099
:100750008091BC0084FDFCCFA0C088E3809322017F
:100760008FC0809119019091BB00E0911701F09129
:100770001801E80FF11D90838F5F8093190190910C
:10078000190180911A0174C0809119019091BB00E8
:10079000E0911701F0911801E80FF11D90838F5F30
:1007A0008093190185ED8093BC008091BC0084FD8D
:1007B000FCCF73C083E080931101109221015AC0D5
:1007C00080912101803208F057C0809121019091E1
:1007D000BB00E0911F01F0912001E80FF11D908313
:1007E0008F5F8093210146C080912101803248F4BF
:1007F00080912101E0911F01F0912001E80FF11D8E
:10080000108260912101E0911501F0911601809113
:100810001F019091200170E0099532C084E080931F
:10082000110110921D0110921E01E0911301F0912F
:100830001401099580911E01882341F481E0809381
:100840001E01E0911B01F0911C01108290911D018D
:10085000E0911B01F0911C01E90FF11D8081809353
:10086000BB009F5F90931D0190911D0180911E011F
:10087000981710F485EC01C085E88093BC000FC088
:1008800085EC8093BC0009C01092220185ED809315
:10089000BC008091BC0084FDFCCF10921101FF913F
:1008A000EF91BF91AF919F918F917F916F915F91E8
:1008B0004F913F912F910F900FBE0F901F90189561
:1008C00010921101449A459AE9EBF0E080818E7F05
:1008D000808380818D7F808388E48093B80085E465
:1008E0008093BC0080E290E061E070E00E945F00D5
:1008F000809317019093180180E290E061E070E02E
:100900000E945F0080931B0190931C0180E290E0A5
:1009100061E070E00E945F0080931F0190932001CE
:1009200008951F920F920FB60F9211242F933F93A9
:100930005F936F937F938F939F93AF93BF938091B8
:1009400031019091320101966CE370E00E948607BC
:100950009093320180933101809131019091320165
:10096000892BA1F580912F019091300101966CE3C4
:1009700070E00E9486079093300180932F0181E000
:100980008093340180912F0190913001892BF1F4F3
:1009900080912D0190912E010C9719F481E090E047
:1009A00005C080912D0190912E01019690932E010A
:1009B00080932D0180912D0190912E010C9731F49F
:1009C0008091330191E0892780933301BF91AF91EA
:1009D0009F918F917F916F915F913F912F910F9098
:1009E0000FBE0F901F901895EF92FF920F931F93D9
:1009F000CF93DF938C01EE24E39482E0F82E809174
:100A00002801813019F1813020F0823009F077C05F
:100A10006DC080E191E0B8010E94B501C3E2D1E070
:100A200080E191E069910E94D90121E0C832D207AA
:100A3000B9F780E191E00E94010265E070E080E09A
:100A400090E00E941607E0922801D9CF80E191E062
:100A5000B80141E050E00E94220280E191E00E9452
:100A6000BF01882331F080E191E00E94C501982FF9
:100A700014C08091290190912A01A0912B01B0917D
:100A80002C010196A11DB11D8093290190932A018B
:100A9000A0932B01B0932C019FEF892F81508230BE
:100AA00018F4F092280104C0992311F4109228013F
:100AB0008091290190912A01A0912B01B0912C01E4
:100AC00089589341A040B04050F0109229011092F3
:100AD0002A0110922B0110922C011092280165E03E
:100AE00070E080E090E00E94160789CF1092280104
:100AF000DF91CF911F910F91FF90EF900895109289
:100B000028017DCF32E53093230133E03093240177
:100B1000609325014295407F422B409326010E941D
:100B2000F4040895EF920F9332E53093230134E0FB
:100B300030932401E29430EFE322E42AE09225018D
:100B40000295007F022B00932601609327010E94EB
:100B5000F4040F91EF900895EF920F9332E53093E4
:100B6000230132E030932401E29450EFE522E42A9D
:100B7000E09225010295007F022B009326016093ED
:100B800027010E94F4040F91EF900895EF920F93C4
:100B90001F93DF93CF9300D000D0CDB7DEB7182FCF
:100BA000062F6AE00E947A0790E0BE016F5F7F4FD8
:100BB0004AE050E00E948401812F6AE00E947A0797
:100BC000892F90E0BE016E5F7F4F4AE050E00E94A7
:100BD0008401802F6AE00E947A0790E0BE016D5F79
:100BE0007F4F4AE050E00E948401802F6AE00E941B
:100BF0007A07892F90E0BE016C5F7F4F4AE050E09A
:100C00000E94840180913401882309F461C010920C
:100C1000340182E090E06B814FE020E00FE035E0AE
:100C2000E32E0E94AC0583E090E06B814FE020E072
:100C30001BE0E12E0E94AC0583E090E06C814FE068
:100C40002FE000E0B3E0EB2E0E94920584E090E0FC
:100C50006C814FE02FE0ADE0EA2E0E94AC0582E00F
:100C600090E06AE34FE02FE00FE0EE24E3940E946F
:100C7000920581E090E06A8140E02FE0F4E0EF2E01
:100C80000E94AC0582E090E06A8140E02FE0ECE059
:100C9000EE2E0E9492056981603341F081E090E080
:100CA0004FE02FE07AE0E72E0E9492058091330119
:100CB000882321F084E090E060E503C084E090E0C8
:100CC00061E44FE020E000E0EE24E3940E9492050E
:100CD0000F900F900F900F90CF91DF911F910F9178
:100CE000EF90089580912D0190912E0160912F0138
:100CF000709130010E94C60561E070E080E090E0F4
:100D00000E941607089580E191E00E942502EFE617
:100D1000F0E01082109280008DE18093810089E0E4
:100D20009DE3909387008093860080E280838CE02F
:100D300090E090932E0180932D011092300110923B
:100D40002F01109232011092310181E08093330122
:100D50008093340181E090E060E040E020E00E9478
:100D6000820582E090E060E040E020E00E948205A1
:100D700083E090E060E040E020E00E94820584E0B3
:100D800090E060E040E020E00E94820508950E942B
:100D900040070E9483060E947206FDCF1F920F92A9
:100DA0000FB60F9211242F933F938F939F93AF937E
:100DB000BF938091390190913A01A0913B01B0918C
:100DC0003C0130913D010196A11DB11D232F2D5FE6
:100DD0002D3720F02D570196A11DB11D20933D0107
:100DE0008093390190933A01A0933B01B0933C0169
:100DF0008091350190913601A0913701B091380171
:100E00000196A11DB11D8093350190933601A093E9
:100E10003701B0933801BF91AF919F918F913F916E
:100E20002F910F900FBE0F901F901895EF92FF9289
:100E30000F931F937B018C018FB7F8944091390178
:100E400050913A0160913B0170913C018FBF2FB7E7
:100E5000F8948091390190913A01A0913B01B091B1
:100E60003C012FBF841B950BA60BB70BE816F906A8
:100E70000A071B0760F71F910F91FF90EF900895ED
:100E8000789484B5826084BD84B5816084BD85B565
:100E9000826085BD85B5816085BDEEE6F0E080812C
:100EA00081608083E1E8F0E08081826080838081DE
:100EB00081608083E0E8F0E0808181608083E1EB05
:100EC000F0E0808184608083E0EBF0E080818160ED
:100ED0008083EAE7F0E080818460808380818260A3
:100EE000808380818160808380818068808310928C
:100EF000C1000895991B79E004C0991F961708F066
:100F0000961B881F7A95C9F78095089597FB092E3F
:100F100007260AD077FD04D00CD006D000201AF4A2
:100F2000709561957F4F0895F6F7909581959F4F45
:100F30000895AA1BBB1B51E107C0AA1FBB1FA61720
:100F4000B70710F0A61BB70B881F991F5A95A9F772
:100F500080959095BC01CD010895EE0FFF1F05907F
:0A0F6000F491E02D0994F894FFCFFE
:060F6A002000420100001E
:00000001FF
