:100000000C9421020C9449020C9449020C9449026C
:100010000C9449020C9449020C9449020C94490234
:100020000C9449020C9463090C9449020C94490203
:100030000C9449020C9449020C9449020C94490214
:100040000C940E0A0C9449020C9449020C94490237
:100050000C9449020C9449020C9449020C944902F4
:100060000C9453040C9449020000004B000004BFA0
:1000700000004BFF0004BFFF004BFFFF04BFFFFF6A
:100080004BFFFFFFBFFFFFFDFFFD7100FFD710001B
:10009000FDF10000DA1000007100000110000017EF
:1000A0000000017E000017EF06EFFFFF6EFFFFFF6D
:1000B000EFFFFFFAFFFFFFA3FFFFFA30FFFAA300F5
:1000C000FFFA3000FFA30000000000000000000065
:1000D0000000000000000000000000000000000020
:1000E00000000000000000000FFFFFFF0FFFFFFFF8
:1000F0000FFFFFFF0FFFFFFF0FFFFFFF0FFFFFFFD0
:100100000FFFFFFF0FFFFFFF0000000000000000D7
:1001100000000000000000000000000000000000DF
:100120000000000000000000FFFD7100FFFD7100F5
:10013000FFFD7100FFFD7100FFFD7100FFFD71000B
:10014000FFFD7100FFFD71000000000000000000D5
:10015000000000000000000000000000000000009F
:10016000000000000000000000000000000000008F
:10017000000000000000000000000000000000007F
:100180000000000000000000FFFFFF4BFFFFF4BF76
:1001900000004BFF0004BFFF004BFFFF04BFFFFF49
:1001A0004BFFFFFFBFFFFFFDFFFD7100FFD71000FA
:1001B000FDF10000DA1000007100000110000017CE
:1001C0000000017E000017EF06EFFFFF6EFFFFFF4C
:1001D000EFFFFFFAFFFFFFA3FFFFFA30FFFAA300D4
:1001E000FFFA3000FFA30000FFFFFF4BFFFFF4BF4B
:1001F00000004BFF0004BFFF004BFFFF04BFFFFFE9
:100200004BFFFFFFBFFFFFFDFFFD7100FFD7100099
:10021000FDF10000DA10000071000001100000176D
:100220000000017E000017EF06EFFFFF6EFFFFFFEB
:10023000EFFFFFFAFFFFFFA3FFFFFA30FFFAA30073
:10024000FFFA3000FFA300000044447C444428101F
:10025000003C44443C44443C0038440404044438D6
:10026000001C24444444241C007C04043C04047CFE
:10027000000404043C04047C0078444474044438BE
:10028000004444447C44444400381010101010389A
:100290000018242020202070004424140C1424442E
:1002A000007C0404040404040044444454546C4496
:1002B00000444464544C4444003844444444443866
:1002C000000404043C44443C00582454444444384E
:1002D000004424143C44443C003C4040380404782E
:1002E000001010101010107C003844444444444462
:1002F0000010284444444444002854545444444482
:100300000044442810284444001010102844444459
:10031000007C04081020407C0078447840380000BD
:10032000003C44444C3404040038440404380000C5
:1003300000784444645840400038047C443800004D
:10034000000808081C084830384078444478000009
:10035000004444444C3404040038101010180010B9
:1003600018242020203000200024140C142404041D
:10037000003810101010101800444454542C000081
:10038000004444444C3400000038444444380000E5
:1003900004043C44443C000040405864645800005D
:1003A000000404044C340000003C403804380000D1
:1003B00000304808081C0808005864444444000001
:1003C00000102844444400000028545444440000D1
:1003D0000044281028440000384078444444000079
:1003E000007C0810207C00000038444C54644438E1
:1003F0000038101010101810007C081020404438ED
:10040000003844402010207C0020207C242830200C
:1004100000384440403C047C003844443C040830EC
:10042000000808081020407C003844443844443810
:1004300000182040784444380000181800181800AC
:10044000C90311241FBECFEFD4E0DEBFCDBF12E041
:10045000A0E0B1E0E0E3F5E102C005900D92A63F17
:10046000B107D9F713E0A6EFB2E001C01D92AD329B
:10047000B107E1F714E0C2E4D4E004C02297FE0122
:100480000E94920AC034D107C9F70E94070A0C944F
:10049000960A0C9400000F931F93CF93DF93689FED
:1004A0008001699F100D789F100D1124C8010E94D2
:1004B0006702EC01009729F060E070E0A8010E945B
:1004C0006903CE01DF91CF911F910F910895CF93D2
:1004D000DF93BC018230910510F462E070E0A091DE
:1004E0002B03B0912C03ED01E0E0F0E040E050E0A0
:1004F00021C0888199818617970769F48A819B8139
:10050000309719F09383828304C090932C038093D7
:100510002B03FE0134C06817790738F441155105E3
:1005200019F08417950708F4AC01FE018A819B81BC
:100530009C01E9012097E9F641155105A9F1CA018D
:10054000861B970B049708F4BA01E0E0F0E02AC09C
:100550008D919C91119784179507F9F4641775078D
:1005600081F412968D919C911397309719F0938393
:10057000828304C090932C0380932B03FD01329659
:100580004CC0CA01861B970BFD01E80FF91F619350
:10059000719302978D939C9340C0FD01828193815A
:1005A0009C01D9011097A1F68091290390912A030B
:1005B000892B41F4809102019091030190932A03C9
:1005C0008093290340910401509105014115510583
:1005D00041F44DB75EB78091000190910101481B35
:1005E000590B2091290330912A03CA01821B930BD6
:1005F0008617970780F0AB014E5F5F4F8417950712
:1006000050F0420F531F50932A0340932903F901DE
:100610006193719302C0E0E0F0E0CF01DF91CF91F0
:100620000895CF93DF93009709F450C0EC0122970F
:100630001B821A82A0912B03B0912C03109709F111
:1006400040E050E0AC17BD0708F1BB83AA83FE0170
:1006500021913191E20FF31FAE17BF0779F48D910D
:100660009C911197280F391F2E5F3F4F39832883A4
:1006700012968D919C9113979B838A834115510506
:1006800071F4D0932C03C0932B0320C012968D914C
:100690009C911397AD01009711F0DC01D3CFFA01C3
:1006A000D383C28321913191E20FF31FCE17DF076D
:1006B00069F488819981280F391F2E5F3F4FFA0115
:1006C000318320838A819B8193838283DF91CF91C1
:1006D0000895DC0101C06D9341505040E0F708954A
:1006E0008091F9029091F802891B08959091F80287
:1006F0008091F902981710F080E00895E091F602D9
:10070000F091F702E90FF11D80819F5F9093F8024D
:1007100008959C018091010390910203892B11F1AE
:100720009091F8028091F9029817E0F090E00BC0E8
:10073000E091F602F091F702EA0FFB1FA20FB31F40
:100740008C9180839F5FA92FB0E0A617B70784F331
:100750001092F8026093F902E0910103F091020314
:10076000CB0109950895E091FF02F09100033097C5
:1007700029F01092FC021092FD02099508957093E1
:100780000203609301030895709300036093FF02D6
:1007900008950895DF93CF930F92CDB7DEB76983A5
:1007A0008091FE028823A9F08091FD028032B0F48E
:1007B0008091FC02E091FA02F091FB02E80FF11D3A
:1007C00060838091FC028F5F8093FC028093FD0226
:1007D00005C0CE01019661E00E942C040F90CF91DC
:1007E000DF91089580E290E061E070E00E944B02AA
:1007F0008093F6029093F7021092F8021092F90299
:1008000080E290E061E070E00E944B028093FA0287
:100810009093FB021092FC021092FD020E94D505FB
:1008200008950F931F938C01862F0E94280483EB59
:1008300093E00E944E0489E893E00E944904C801B5
:100840000E94F2031F910F9108950E9411040895D0
:10085000880F8093BA000895482F613210F081E02C
:10086000089580910403843011F082E0089560932C
:100870001103A0910E03B0910F03842F9C01F90185
:1008800002C081918D938E2F841B8617D0F380E058
:1008900008959093090380930803089590930703A4
:1008A0008093060308951F920F920FB60F921124A2
:1008B0002F933F934F935F936F937F938F939F9368
:1008C000AF93BF93EF93FF938091B90090E0887F3F
:1008D00090708036910509F4E2C081369105CCF51F
:1008E0008832910509F47BC089329105B4F48031D6
:1008F000910509F46FC0813191053CF4009709F42A
:1009000038C1089709F040C165C08831910509F4E4
:1009100066C0809709F038C17FC08034910509F422
:10092000A3C08134910544F48033910509F47FC05C
:10093000C89709F029C186C08035910509F486C0A1
:100940008835910509F495C08834910509F01CC1DA
:100950009EC08839910509F404C189399105ECF4E8
:100960008837910509F49BC0893791054CF4883686
:10097000910509F494C08037910509F005C18FC035
:100980008838910509F4EDC08039910509F48DC0CE
:100990008038910509F0F8C088C0803B910509F4C2
:1009A000B2C0813B91054CF4803A910509F491C0A5
:1009B000883A910509F0E8C0A6C0803C910509F489
:1009C000D4C0883C910509F4D0C0883B910509F05A
:1009D000DBC0B1C0809105038093BB00C0C0909183
:1009E0000C0380910D03981778F490910C03E0911B
:1009F0000A03F0910B03E90FF11D80818093BB0086
:100A00009F5F90930C03ABC085ED8093BC008091F9
:100A1000BC0084FDFCCFB6C080E28093150385ED59
:100A20008093BC008091BC0084FDFCCFABC080E310
:100A30008093150385ED8093BC008091BC0084FDFC
:100A4000FCCFA0C088E3809315038FC080910C0376
:100A50009091BB00E0910A03F0910B03E80FF11DA8
:100A600090838F5F80930C0390910C0380910D0312
:100A700074C080910C039091BB00E0910A03F09147
:100A80000B03E80FF11D90838F5F80930C0385EDBE
:100A90008093BC008091BC0084FDFCCF73C083E0D8
:100AA00080930403109214035AC08091140380327F
:100AB00008F057C0809114039091BB00E09112039D
:100AC000F0911303E80FF11D90838F5F809314035F
:100AD00046C080911403803248F480911403E09161
:100AE0001203F0911303E80FF11D108260911403BB
:100AF000E0910803F0910903809112039091130390
:100B000070E0099532C084E08093040310921003D2
:100B100010921103E0910603F0910703099580916B
:100B20001103882341F481E080931103E0910E03C7
:100B3000F0910F03108290911003E0910E03F09159
:100B40000F03E90FF11D80818093BB009F5F90939D
:100B500010039091100380911103981710F485EC05
:100B600001C085E88093BC000FC085EC8093BC0079
:100B700009C01092150385ED8093BC008091BC00E4
:100B800084FDFCCF10920403FF91EF91BF91AF91D0
:100B90009F918F917F916F915F914F913F912F9195
:100BA0000F900FBE0F901F90189510920403449A57
:100BB000459AE9EBF0E080818E7F808380818D7F94
:100BC000808388E48093B80085E48093BC0080E251
:100BD00090E061E070E00E944B0280930A039093E2
:100BE0000B0380E290E061E070E00E944B02809392
:100BF0000E0390930F0380E290E061E070E00E94AA
:100C00004B0280931203909313030895E0EBF0E0FE
:100C1000808183608083E1EBF0E080818460808369
:100C200080818C7F808380818C7F8083E6EBF0E005
:100C300080818083E0E7F0E0808181608083809123
:100C400006018093B200789408952F923F924F92BC
:100C50005F926F927F928F929F92AF92BF92CF924C
:100C6000DF92EF92FF920F931F93DF93CF93CDB755
:100C7000DEB727970FB6F894DEBF0FBECDBF8091C9
:100C80001D0382958F7020911F0310921C03282E44
:100C9000332486958983309118033A83832F90E01B
:100CA00001968170907060E070E02C01440C551C3E
:100CB000480E591E41E02422332483E0289FF0018E
:100CC0001124FC83EB8330E03901660C771C620E43
:100CD000731EF981FC5FFD8361C021143104F9F0BA
:100CE000EF2DF0E083E08F1508F43497E20FF31F47
:100CF000E859FF4F9491EF2DF0E082E08F1510F04E
:100D0000319601C03397E20FF31FE859FF4F8491EA
:100D100082958F709295907F982B9C930FC0EE2DAB
:100D2000F0E093E09E1508F434978E819F81E80FE0
:100D3000F91FE859FF4F8491F801808311960F5FE6
:100D40001F4FE394F394FD81EF1609F0C6CF4F5F78
:100D50005F4F48305105E9F0DA01A80DB91DAA0F1F
:100D6000BB1FAA0FBB1FAA5EBE4F8D01E980FE2CE0
:100D7000C501840F951F880F991F880F991F9F83A6
:100D80008E839601240F351F220F331F220F331F2E
:100D9000A4CF6F5F7F4F63307105E1F040E050E01A
:100DA0004201860E971E23E0880C991C2A95E1F7D4
:100DB000AB80BC80A60EB71E93E0AA0CBB1C9A9514
:100DC000E1F76B01C60CD71C83E0CC0CDD1C8A95C7
:100DD000E1F7C2CF9A819F5F917090931803279695
:100DE0000FB6F894DEBF0FBECDBFCF91DF911F913C
:100DF0000F91FF90EF90DF90CF90BF90AF909F90BA
:100E00008F907F906F905F904F903F902F900895BC
:100E10002F923F924F925F926F927F928F929F920A
:100E2000AF92BF92CF92DF92EF92FF920F931F93F8
:100E3000DF93CF93CDB7DEB72F970FB6F894DEBF11
:100E40000FBECDBF888780911D03882E8294AFE0AE
:100E50008A228B828F708D8380911E03682F62950A
:100E60006F708F708C8350911F0310921C03452F5D
:100E700041544A3158F0852F81568A3110F446503A
:100E800005C0452F40534B3008F040E090901803C8
:100E90009E82892D90E001969C012170307001970F
:100EA00069831A82AA24BB2450535B87C42EDD2495
:100EB000F3E0CC0CDD1CFA95E1F74B81242E3324B2
:100EC000A8EFBFEF2A0E3B1E2901440C551C420E11
:100ED000531E3C01660C771C680E791E0BC0BA814C
:100EE000B13019F0EC81E98302C0FD81F9830894E7
:100EF000A11CB11C8980829460EF86228F8260E001
:100F000070E07201EA0CFB1C43E0EE0CFF1C4A95FA
:100F1000E1F783010A0D1B1D33E0000F111F3A9505
:100F2000E1F72B852B3038F4FB01EC0DFD1DE8516A
:100F3000FC4F849106C0FB01EC0DFD1DE85BFD4FED
:100F4000849190E03B81373030F402C0880F991FC4
:100F50003A95E2F706C0022C02C0959587950A944F
:100F6000E2F7FB01EE0DFF1DEE0FFF1FEE0FFF1F5F
:100F7000EA5EFE4FDB01A00FB11FAA0FBB1FAA0F35
:100F8000BB1FAA5EBE4FBD87AC8720E030E0882E35
:100F900099249A86898689859A85022E02C0880FAF
:100FA000991F0A94E2F7452F4F7050E8852E912C37
:100FB0008822992287FF02C05F81452B2F5F3F4F18
:100FC00089859A85022E02C0880F991F0A94E2F73C
:100FD00021503040407FDC01A078B070BF87AE87E1
:100FE00087FF03C05981542B01C0542FB885BB2300
:100FF000B1F0AC85BD854C914083892829F04F70B4
:10100000852F807F842B80838E849F84892841F064
:101010009081907F852F8F70892B808301C05083B2
:101020002E5F3F4F31968C859D8501969D878C87DD
:101030002830310509F0AFCF6F5F7F4F6830710501
:1010400009F06FCF9A819F5F9A83933009F047CF61
:10105000AE81AF5FA170A09318032F960FB6F894DE
:10106000DEBF0FBECDBFCF91DF911F910F91FF90DB
:10107000EF90DF90CF90BF90AF909F908F907F9038
:101080006F905F904F903F902F900895FF920F9335
:101090001F93CF93DF9330911D033F7020911E0368
:1010A000422F42954F702F7010921C0370911803BD
:1010B000872F90E0019681709070F42EF29410EFDB
:1010C000F122F42A022F0295007F022B132F129592
:1010D000107F132B60E0AC01440F551F480F591FC0
:1010E000A3E0440F551FAA95E1F72CC0613039F0F9
:1010F000613018F0623031F404C0F88203C00C9300
:1011000001C010838F5F219611963196843071F75C
:101110002F5F3F4F2830310591F0C901840F951F93
:10112000880F991F880F991FEC01CA5EDE4FDC0102
:10113000AA5CBE4FFC01EA5AFE4F80E0D7CF6F5F3A
:10114000633019F020E030E0E8CF7F5F717070937A
:101150001803DF91CF911F910F91FF900895809117
:101160001C03823069F0833018F4813099F405C093
:10117000833051F0843071F40AC00E94250608952E
:1011800080E00E94080708950E944608089581E0C3
:101190000E940807089580911903813029F0813059
:1011A000A8F0823089F406C00E94AF0882E08093E4
:1011B0001903089580911A0380FF08C01092190343
:1011C0008E7F80931A0308951092190308951F9338
:1011D000162F429A2091180330E040E050E0682F2B
:1011E00070E0D901AA0FBB1FA20FB31F1CC09081D2
:1011F000892F82958F70181710F4409A01C040987B
:101200004198419A9F70191710F4409A01C0409874
:101210004198419A2F5F3196243049F74F5F5F4FD5
:101220004330510591F0FD01E40FF51F93E0EE0FFF
:10123000FF1F9A95E1F7E60FF71FEE0FFF1FEE0F66
:10124000FF1FEA5EFE4F20E0D2CF42981F91089523
:101250008330B9F0843028F4813071F0823070F43A
:1012600009C0853091F0853070F0863081F087308C
:1012700099F410C084E003C082E001C081E085B928
:10128000089580E805C080E403C080E201C080E1E9
:101290008BB9089588E08BB908950F931F93182F89
:1012A000062F439A8BB187708BB985B1887F85B93A
:1012B000812F0E942809812F602F0E94E708439800
:1012C0001F910F9108951F920F920FB60F92112444
:1012D0002F933F934F935F936F937F938F939F933E
:1012E000AF93BF93EF93FF9360911703E62FF0E066
:1012F000EA5FFE4F80818093B200809116030E94C6
:101300004D09809116038F5F80931603883058F043
:1013100010921603809117038F5F8093170380311B
:1013200010F010921703FF91EF91BF91AF919F9131
:101330008F917F916F915F914F913F912F910F907E
:101340000FBE0F901F90189583E093E060911903F2
:101350000E94CA03809119038150823028F4809141
:101360001A03816080931A0308951F9310E00AC046
:1013700083E093E00E947603E12FF0E0E55EFC4F0E
:1013800080831F5F83E093E00E947003882381F7CE
:10139000153041F480911B03823521F481E0809364
:1013A000190302C0109219031F9108950F931F9300
:1013B0008FEF8AB987B984B91BB815B803E013E079
:1013C000C80161E070E00E942504C80165EB79E086
:1013D0000E94BF03C80164EA79E00E94C4030E942E
:1013E00006061F910F9108950E94D60910921B03C3
:1013F00010921C038FE080931D038FEF80931E03D8
:1014000081E380931F0380E00E94080708950E94F3
:10141000560A0E94F4090E94CB08FDCF1F920F923A
:101420000FB60F9211242F933F938F939F93AF93F7
:10143000BF938091240390912503A0912603B0913E
:101440002703309128030196A11DB11D232F2D5F85
:101450002D3720F02D570196A11DB11D2093280393
:101460008093240390932503A0932603B09327032E
:101470008091200390912103A0912203B091230336
:101480000196A11DB11D8093200390932103A09389
:101490002203B0932303BF91AF919F918F913F910E
:1014A0002F910F900FBE0F901F901895789484B5D0
:1014B000826084BD84B5816084BD85B5826085BD50
:1014C00085B5816085BDEEE6F0E080818160808336
:1014D000E1E8F0E0808182608083808181608083A8
:1014E000E0E8F0E0808181608083E1EBF0E08081E2
:1014F00084608083E0EBF0E0808181608083EAE7B4
:10150000F0E080818460808380818260808380813C
:10151000816080838081806880831092C1000895FB
:10152000EE0FFF1F0590F491E02D0994F894FFCF82
:1015300020002D030000E7E7E7E7E7E7E7E7E7E755
:10154000E7E7E7E7E7E70000004B000004BF000023
:101550004BFF0004BFFF004BFFFF04BFFFFF4BFF2B
:10156000FFFFBFFFFFFDFFFD7100FFD71000FDF182
:101570000000DA10000071000001100000170000E8
:10158000017E000017EF06EFFFFF6EFFFFFFEFFF8A
:10159000FFFAFFFFFFA3FFFFFA30FFFAA300FFFAF5
:1015A0003000FFA30000FFFFFF4BFFFFF4BF000070
:1015B0004BFF0004BFFF004BFFFF04BFFFFF4BFFCB
:1015C000FFFFBFFFFFFDFFFD7100FFD71000FDF122
:1015D0000000DA1000007100000110000017000088
:1015E000017E000017EF06EFFFFF6EFFFFFFEFFF2A
:1015F000FFFAFFFFFFA3FFFFFA30FFFAA300FFFA95
:101600003000FFA300000000000000000000000008
:1016100000000000000000000000000000000000CA
:1016200000000000000000000000000000000000BA
:1016300000000000000000000000000000000000AA
:10164000000000000000000000000000000000009A
:10165000000000000000000000000000000000008A
:10166000000000000000000000000000000000007A
:10167000000000000000000000000000000000006A
:10168000000000000000000000000000000000005A
:10169000000000000000000000000000000000004A
:1016A000000000000000000000000000000000003A
:1016B000000000000000000000000000000000002A
:1016C000000000000000000000000000000000001A
:1016D000000000000000000000000000000000000A
:1016E00000000000000000000000000000000000FA
:1016F00000000000000000000000000000000000EA
:1017000000000000000000000000000000000000D9
:1017100000000000000000000000000000000000C9
:06172000000000000000C3
:00000001FF
